:100000000C9434000C9451000C9451000C94510049
:100010000C9451000C9451000C9451000C9451001C
:100020000C9451000C9451000C9451000C9451000C
:100030000C9451000C9451000C9451000C945100FC
:100040000C9451000C9451000C94AF000C9451008E
:100050000C9451000C9451000C9451000C945100DC
:100060000C9451000C94510011241FBECFEFD4E02A
:10007000DEBFCDBF11E0A0E0B1E0E0EBF3E002C0F5
:1000800005900D92A432B107D9F711E0A4E2B1E0D6
:1000900001C01D92A632B107E1F70E94C2000C9484
:1000A000D6010C940000382F613071F5883060F46F
:1000B0002BB181E090E002C0880F991F3A95E2F7DA
:1000C000809582238BB90895482F50E08E3070F4CC
:1000D00025B14850504081E090E002C0880F991F40
:1000E0004A95E2F78095822385B9089528B1405159
:1000F000504081E090E002C0880F991F4A95E2F7D6
:100100008095822388B90895883058F42BB181E016
:1001100090E002C0880F991F3A95E2F7282B2BB97F
:100120000895482F50E08E3068F425B14850504073
:1001300081E090E002C0880F991F4A95E2F7282BD2
:1001400025B9089528B14051504081E090E002C0A7
:10015000880F991F4A95E2F7282B28B908951F9216
:100160000F920FB60F9211248F9381E08093250197
:100170008091C600809324018F910F900FBE0F9045
:100180001F901895CF92DF92EF92FF920F931F93DB
:10019000DF93CF9300D000D000D0CDB7DEB7259A43
:1001A00060E074E284EF90E020E030E040E050E076
:1001B0000E9485012150304088E98093C10086E08B
:1001C0008093C2003093C5002093C400789491E4DA
:1001D000C92E8AE0D82E7E010894E11CF11C00E9AA
:1001E00011E08091C00085FFFCCFC092C6008091D5
:1001F000C00085FFFCCFD092C600E0E0F1E007C070
:100200008091C00085FFFCCF9093C600319690810D
:100210009923B1F780E890E0B7014AE050E00E94EE
:100220005401F70107C08091C00085FFFCCF909377
:10023000C600319690819923B1F78091C00085FF67
:10024000FCCFD092C600EBE0F1E007C08091C00087
:1002500085FFFCCF9093C600319690819923B1F72A
:100260008DE061E00E94530088E893E1F801319746
:10027000F1F70197D9F7E7E1F1E007C08091C000FD
:1002800085FFFCCF9093C600319690819923B1F7FA
:100290008DE060E00E94530088E893E1F801319717
:1002A000F1F70197D9F79DCFFB019F01E894423008
:1002B000C4F04532B4F44A3029F497FB1EF490950B
:1002C00081959F4F642F77270E94C201805D8A33FA
:1002D0000CF0895D8193CB010097A1F716F45DE2E4
:1002E00051931082C9010C947501DC01FC01672F48
:1002F00071917723E1F7329704C07C916D937083FD
:100300006291AE17BF07C8F3089597FB092E052623
:100310000ED057FD04D014D00AD0001C38F45095EC
:100320004095309521953F4F4F4F5F4F0895F6F719
:1003300090958095709561957F4F8F4F9F4F089551
:10034000A1E21A2EAA1BBB1BFD010DC0AA1FBB1FD9
:10035000EE1FFF1FA217B307E407F50720F0A21B4B
:10036000B30BE40BF50B661F771F881F991F1A94B8
:1003700069F760957095809590959B01AC01BD01E2
:10038000CF010895AA1BBB1B51E107C0AA1FBB1FC9
:10039000A617B70710F0A61BB70B881F991F5A9511
:1003A000A9F780959095BC01CD010895F894FFCFF1
:1003B000416C6120206B6F74610A0044696F646155
:1003C000204C4F57200A0044696F64612048494718
:0403D00048200A00B7
:00000001FF
