:100000000C9434000C943E000C943E000C943E0082
:100010000C943E000C943E000C943E000C943E0068
:100020000C943E000C943E000C943E000C943E0058
:100030000C943E000C943E000C943E000C943E0048
:100040000C943E000C943E000C949C000C943E00DA
:100050000C943E000C943E000C943E000C943E0028
:100060000C943E000C943E0011241FBECFEFD4E050
:10007000DEBFCDBF0E94A6000C9410010C940000BE
:10008000382F613071F5883060F42BB181E090E059
:1000900002C0880F991F3A95E2F7809582238BB9A9
:1000A0000895482F50E08E3070F425B148505040EC
:1000B00081E090E002C0880F991F4A95E2F7809591
:1000C000822385B9089528B14051504081E090E0E5
:1000D00002C0880F991F4A95E2F78095822388B95C
:1000E0000895883058F42BB181E090E002C0880F69
:1000F000991F3A95E2F7282B2BB90895482F50E025
:100100008E3068F425B14850504081E090E002C044
:10011000880F991F4A95E2F7282B25B9089528B131
:100120004051504081E090E002C0880F991F4A95ED
:10013000E2F7282B28B908951F920F920FB60F925D
:1001400011240F900FBE0F901F901895CF93DF933F
:10015000259A60E074E284EF90E020E030E040E037
:1001600050E00E94D300215030403093C5002093CE
:10017000C4007894C0E9D1E08DE060E00E944000C6
:1001800088E893E1FE013197F1F70197D9F78DE007
:1001900061E00E94400088E893E1FE013197F1F7A9
:1001A0000197D9F7E9CF97FB092E05260ED057FD09
:1001B00004D014D00AD0001C38F4509540953095E6
:1001C00021953F4F4F4F5F4F0895F6F790958095DB
:1001D000709561957F4F8F4F9F4F0895A1E21A2E22
:1001E000AA1BBB1BFD010DC0AA1FBB1FEE1FFF1FDB
:1001F000A217B307E407F50720F0A21BB30BE40B2B
:10020000F50B661F771F881F991F1A9469F7609571
:100210007095809590959B01AC01BD01CF0108952B
:10022000F894FFCFFFFFFFFFFFFFFFFFFFFFFFFF80
:10023000FFFFFFFFFFFFFFFFFFFFFFFFFFFFFFFFCE
:10024000FFFFFFFFFFFFFFFFFFFFFFFFFFFFFFFFBE
:10025000FFFFFFFFFFFFFFFFFFFFFFFFFFFFFFFFAE
:10026000FFFFFFFFFFFFFFFFFFFFFFFFFFFFFFFF9E
:10027000FFFFFFFFFFFFFFFFFFFFFFFFFFFFFFFF8E
:00000001FF